:020000040800F2
:10000000686500205D02000875030008E30200082F
:1000100071030008C9020008D905000800000000AB
:100020000000000000000000000000009D0100082A
:10003000CD02000800000000F901000801040008DA
:1000400077020008770200087702000877020008AC
:10005000770200087702000877020008770200089C
:10006000770200087702000877020008770200088C
:10007000770200087702000877020008770200087C
:10008000770200087702000877020008770200086C
:10009000770200087702000877020008770200085C
:1000A000770200087702000877020008770200084C
:1000B000770200087702000877020008770200083C
:1000C000770200087702000877020008770200082C
:1000D000770200087702000877020008770200081C
:1000E000770200087702000877020008770200080C
:1000F00077020008770200087702000877020008FC
:10010000000000007702000877020008770200086C
:1001100077020008770200087702000877020008DB
:1001200077020008770200087702000877020008CB
:1001300077020008000000000000000077020008BD
:1001400077020008770200087702000877020008AB
:10015000770200087702000877020008770200089B
:10016000770200087702000877020008770200088B
:1001700077020008770200087702000800000000FC
:100180007702000877020008DFF80CD000F08AF848
:1001900000480047DF060008686500202C4B1968FE
:1001A0000868B0E8F04F80F30988BFF36F8F4FF015
:1001B000000080F3118870470000000008480068C4
:1001C000006880F308884FF0000080F3148862B65E
:1001D00061B6BFF34F8FBFF36F8F00DF00BF00BF6B
:1001E00008ED00E0DFF80C00016841F470010160E7
:1001F000704700BF88ED00E0EFF30980BFF36F8F19
:10020000134B1A681EF0100F08BF20ED108A20E96A
:10021000F04F106009B44FF0BF0080F31188BFF3B6
:100220004F8FBFF36F8F00F021FF4FF0000080F37E
:10023000118809BC19680868B0E8F04F1EF0100F6B
:1002400008BFB0EC108A80F30988BFF36F8F704746
:1002500040000020EFF3058070470000064880470B
:1002600006480047FEE7FEE7FEE7FEE7FEE7FEE79B
:10027000FEE7FEE7FEE7FEE70D040008890100083F
:10028000D2B201E000F8012B491EFBD270470022D8
:10029000F6E710B513460A4604461946FFF7F0FF85
:1002A000204610BD064C074D06E0E06840F0010313
:1002B00094E8070098471034AC42F6D3FFF768FF84
:1002C000A4140008C414000800BFFEE700BFFEE746
:1002D00006E0012000F058F94FF4FA7000F07EFEBD
:1002E000F7E700BFFEE700BF002000F04DF94FF434
:1002F000FA7000F073FEF7E710B5002433E004EB6A
:1003000044011A4A32F8210000F008FD04EB4401D0
:10031000164A02EB81018B6804EB440102EB810178
:1003200002224868012100F092F904EB44010F4ACF
:1003300002EB81018B6804EB440102EB8101002296
:100340004868114600F0AAF904EB4402074B03EB9E
:100350008202916804EB440203EB8202506800F0D1
:1003600067F9601CC4B2042CC9D310BD1000002072
:1003700000BFFEE700BFFEE710B5002807DA0A0756
:10038000140E054A00F00F031B1FD45403E00A07A4
:10039000130E024A135410BD18ED00E000E400E013
:1003A0001CB500F0BFFD0C48012100233222CDE92D
:1003B00000100AA10C4800F0CBFE0C4802210023DB
:1003C0000A02CDE900100AA10C4800F0C1FE00F0BD
:1003D000BBFD00F01DFE1CBD000000204C45445F2D
:1003E0007461736B00000000E70200080400002045
:1003F00044656275675F7461736B0000D102000829
:1004000010B500F08BFE00F007F910BD1CB55A487E
:10041000006840F47000584908605848006840F08F
:1004200001005649086000BF5448006800F002000F
:100430000028F9D051480830006800F00C00082866
:100440006ED100BF0020019002E00198401C019095
:1004500001985028F9D34948083000680090009866
:1004600020F0F0000090009840F080000090434998
:100470000831009808600020019002E00198401CBB
:10048000019001985028F9D33C480830006800904A
:10049000009820F0F0000090009840F0900000904C
:1004A00036490831009808600020019002E0019868
:1004B000401C019001985028F9D33048083000685A
:1004C0000090009820F0F0000090009840F0A0000C
:1004D00000902A490831009808600020019002E04D
:1004E0000198401C019001985028F9D32348083006
:1004F00000680090009820F0F0000090009840F014
:10050000B00000901D49083100980860002001905B
:1005100002E00198401C019001985028F9D300BFD7
:10052000C82000F06AF815480830006820F0030081
:1005300012490831086011480068114908400F4904
:1005400008600846006820F48020086000200B49FD
:100550000831086000BF0948083000680020002802
:10056000F9D108480549091D0860002003490C31EC
:10057000086000F06DFC1CBD88ED00E00038024012
:10058000FFFFF6FE1030002470B50446042C00D3A3
:1005900070BD04EB44020F4B03EB8202916804EB45
:1005A000440203EB8202506800F049F80546C5F1A9
:1005B0000100C5B204EB4402064B03EB82029168D2
:1005C00004EB440203EB820250682A4600F032F842
:1005D00000BFDDE71000002000BFFEE702E008C812
:1005E000121F08C1002AFAD170477047002001E0AD
:1005F00001C1121F002AFBD1704708B500210091EC
:1006000002E00099491C009100EB8001009AB2EBD6
:10061000410FF6D308BD00000448006820B103482C
:100620000068401E01490860704700000800002073
:10063000816170470AB1816100E0816270470246C2
:100640001069084008B1012070470020FCE7F0B5B0
:1006500004460D4616462168E268002019E001278D
:1006600087401F409FB14FEA400C032707FA0CF761
:10067000B943470005FA07F739434FEA400C03270F
:1006800007FA0CF7BA43470006FA07F73A43471C44
:10069000B8B21028E3D32160E260F0BDF0B50C469B
:1006A0001546012C03D146681E43466002E04668A9
:1006B0009E434660826800210DE001268E401E4068
:1006C0003EB14F000326BE40B2434E0005FA06F687
:1006D00032434E1CB1B21029EFD38260F0BD00F05E
:1006E000BBFBFFF709FEFFF75BFE00BFFEE7000064
:1006F0002DE9F04705460E46294807682948D0F8F5
:1007000000802948D0F8009028480068001D00F0BB
:10071000CBFB50B92548006890F82C100120884088
:1007200023490968814322480160681CE0B9DEB1B1
:1007300000BF204948681D49096888601B498268D4
:100740000968CA6019490968091D8268516017491A
:100750000968091D8160174A144909684A611146F0
:100760000968491C116018E07C1910480068446051
:10077000BC4206D20D480168091D484600F0B8FB8E
:100780000BE00A480168091D404600F0B1FB0A4829
:100790000068844201D208480460BDE8F087000088
:1007A00054000020440000204800002040000020A9
:1007B00058000020540100207000002010B50446AD
:1007C00000F0B0FB32480068401C314908603148F5
:1007D000006840B92F4804600846006801280DD120
:1007E00000F07AF90AE02C48006838B92948006816
:1007F000C06AE16A884201D8264804602748006838
:10080000401C2649086000BF94F82C100120884045
:100810002349096808432249086000BFE16A01EBE7
:100820008101204A02EB81014868A0608268E26091
:10083000211D826851608160E16A01EB8101194AE2
:1008400002EB81026261E16A01EB8101154A52F813
:100850002110491CE26A02EB8202124B43F822107B
:1008600000BF00BF00F070FB0B48006878B100BF0C
:1008700008480068C06AE16A884207D24FF0805099
:1008800009490860BFF34F8FBFF36F8F00BF10BDE2
:1008900050000020400000205C0000206C00002080
:1008A00058000020A000002004ED00E010B516E084
:1008B00000F038FB0C48C068C468201D00F0F4FA52
:1008C0000A480068401E0949086009480068401E3F
:1008D0000749086000F038FB204600F06CF8044837
:1008E00000680028E4D110BD400100205000002025
:1008F0004C000020F0B587B001260027002408E056
:1009000012A0005D03A9085503A8005D00B902E02C
:10091000641C102CF4DB00BF002510E00D4F0E48C6
:1009200000EB850000210B468022CDE9001003A9D1
:10093000384600F00DFC064606B902E06D1C012D9C
:10094000ECDB00BF304607B0F0BD000049444C4529
:1009500000000000350A0008740000202DE9FF5F48
:100960000746884616469946DDE90EABB00000F012
:100970003FF9054675B14C2000F03AF904462CB118
:100980004C212046FFF783FC256304E0284600F055
:10099000EBFA00E0002454B100204B4632464146B9
:1009A000CDE900ABCDE90240384600F057F82046CB
:1009B00004B0BDE8F09F10B50446206B00F0D4FAF7
:1009C000204600F0D1FA10BD30B54FF488431448EA
:1009D00000F007042CB1C01D20F00700104C041BD0
:1009E0001B1B104C206000240E4D6C60C218083A8E
:1009F00022F007020C4C226000240B4D2D686C6025
:100A0000094D2D682C600146541A4C60064C246830
:100A10000C60064D4C682C60054D4C682C6030BD58
:100A200068010020840000208C0000209400002039
:100A30009000002000BFFFF739FF0648006801283A
:100A4000F9D94FF0805004490860BFF34F8FBFF3CE
:100A50006F8FF0E7A000002004ED00E02DE9FF5FBC
:100A600080460E469146DDE90E7A109CA9F1010000
:100A7000216B01EB800B2BF0070B7EB1002507E00B
:100A8000715D04F134004155705D00B902E06D1CE8
:100A9000102DF5D300BF002143200155052F00D3B1
:100AA0000427E762201D00F020FA04F1180000F08E
:100AB0001CFA2461C7F10500A061646241465846F2
:100AC000039A00F015F92060BAF1000F01D0CAF8BE
:100AD0000040BDE8FF9F000010B5002407E004EBD4
:100AE00084010F4A02EB810000F0F2F9641C052C2E
:100AF000F5D30C4800F0ECF90B4800F0E9F90B488D
:100B000000F0E6F90A4800F0E3F90A4800F0E0F9DD
:100B100004480949086004480849086010BD0000FD
:100B2000A000002004010020180100202C0100205A
:100B30004001002054010020440000204800002013
:100B400010B50146164800E0006803688B42FBD3ED
:100B50000246436813448B4204D143684C682344E3
:100B6000436001460A464B6813440468A34211D10E
:100B70000C4C03682468A34208D04B68046864687E
:100B800023444B6003681B680B6005E0054B1B6842
:100B90000B6001E003680B60884200D0016010BD6B
:100BA000840000208C00002009480068006808B913
:100BB000012000E0002020B14FF0FF30054908601F
:100BC00005E003480068C068006802490860704793
:100BD000440000207000002000BFBF2080F3118877
:100BE000BFF34F8FBFF36F8F00BF00BFFEE7000062
:100BF0002DE9F04704464FF00009DCB114F1090F6C
:100C000001D9012000E0002098B9083404F0070061
:100C100080B104F00700C0F10808C8F1FF30A0421D
:100C200001D2012000E0002008B9444402E0002481
:100C300000E0002400F012FA2848006808B9FFF725
:100C4000C3FE012000EBE470002841D0002C3FD00F
:100C50002348006884423BD8224E3046056801E0B4
:100C60002E462D686868A04202D228680028F7D175
:100C70001A48006885422BD0306800F108092868BE
:100C800030606868001B102807D92F196868001B9E
:100C900078606C603068386037601149686809684E
:100CA000081A0F490860084600680F490968884219
:100CB00003D20B4800680C490860686840F00040A7
:100CC00068600020286009480068401C07490860E7
:100CD00000F02AFB4846BDE8F08700008C000020A9
:100CE0009000002084000020940000209800002044
:100CF000001F4FF080730360001F21F001030360A9
:100D0000001F054B036014380260001F6FF00203E0
:100D10000360203870470000D90B0008074A02EB37
:100D20009011D1F8001800F01F0301229A401143DE
:100D3000024B03EB9012C2F80018704700300240DB
:100D400008B5002000213F4A126842F480323D4B32
:100D50001A6000BF401C3B4A126802F4003119B906
:100D60004FF6FF729042F5D1364A126802F4003213
:100D700032B900BF334A126802F40032002AF9D0B7
:100D8000304A4032126842F080522E4B40331A6093
:100D90002D4A126842F440422B4B1A60294A08320D
:100DA0001268284B08331A601A46126842F400424F
:100DB0001A601A46126842F4A0521A60234A1B1F96
:100DC0001A601A1F126842F080721B1F1A6000BF5F
:100DD0001C4A126802F00072002AF9D01A4A1268FE
:100DE00042F48032184B1A6000BF174A526802F46E
:100DF0008032002AF9D0144A126842F40032124BB1
:100E00001A6000BF104A526802F40032002AF9D07A
:100E10000C4A083212680092009A22F003020092F3
:100E2000009A42F002020092064B0833009A1A60C0
:100E300000BF044A0832126802F00802002AF8D003
:100E400008BD0000003802400070004019644009ED
:100E500010B5FFF775FF10BD10B5124800684FF4CC
:100E60007A71B0FBF1F4601EB0F1807F01D30120F4
:100E70000FE0601E4FF0E02148610F214FF0FF307E
:100E8000FFF77AFA00204FF0E0218861072008611F
:100E9000002008B100BFFEE70021481EFFF76CFAF2
:100EA00010BD00000C00002001460A69D1E90130A4
:100EB0009860D1E9010358605068884201D1886880
:100EC0005060002008611068401E10601068704774
:100ED00000F1080141604FF0FF31816000F108012D
:100EE000C16001610021016070470021016170470C
:100EF00010B502460B685C1C0CB9106907E002F1E2
:100F0000080000E04068446824689C42FAD94468BC
:100F10004C604C68A160886041600A611468641C80
:100F2000146010BD00BFBF2080F31188BFF34F8F46
:100F3000BFF36F8F00BF03480068401C0149086081
:100F4000704700008000002006480068401E0549E8
:100F500008600846006820B9002080F3118800BFAF
:100F600000BF70478000002070B506463546E6B1E8
:100F7000083D2C466068C00FB8B12068A8B9606809
:100F800020F00040606000F069F808496068096876
:100F90000844064908602046FFF7D2FD044800686F
:100FA000401C0349086000F0BFF970BD90000020AC
:100FB0009C00002000204FF0E02108618861064875
:100FC00000684FF47A71B0FBF1F0401E4FF0E02161
:100FD00048610720086170470C00002070B5044686
:100FE000002544B100F03AF800212046FFF780FBCD
:100FF00000F09AF905463DB94FF08050034908606A
:10100000BFF34F8FBFF36F8F70BD000004ED00E0A2
:1010100010B5FFF76FFC0446012C14D100BFBF20B0
:1010200080F31188BFF34F8FBFF36F8F00BF4FF076
:10103000FF30064908600120054908600020054985
:10104000086000F047F80448006810BD70000020F8
:101050005C00002054000020780000200248006856
:10106000401C0149086070477C000020144800685B
:1010700018B101201349086021E0002011490860DF
:1010800000BF11480068B0FA80F0C0F11F0100BF36
:1010900001EB81020D4B03EB820042685268426013
:1010A00000F108024368934201D1C268426042687D
:1010B000D268074B1A6000BF00BF1846006870472F
:1010C0007C0000206400002058000020A0000020C8
:1010D0004000002010B50E48006840F47F000C4925
:1010E00008600846006840F07F400860FFF762FF34
:1010F000002008490860FFF775F80748006840F0CD
:10110000404005490860FFF759F8002010BD000075
:1011100020ED00E08000002034EF00E010B500BFBB
:10112000BF2080F31188BFF34F8FBFF36F8F00BFD5
:1011300000F02AF818B14FF080500449086000BF51
:10114000002080F3118800BF10BD000004ED00E016
:101150002DE9FC5F06460F4690469946DDE90CAB4B
:101160004B46424639463046CDE900ABFFF7F6FB29
:10117000054625B12846FFF721FB012401E04FF089
:10118000FF342046BDE8FC9F2DE9F04100275B4875
:10119000006800287DD15A480068451C5848056001
:1011A00095B900BF5748D0F80080574800685549A6
:1011B00008605548C0F8008054480068401C5349F6
:1011C0000860FFF7F1FC00BF5148006885427DD3FD
:1011D00000BF4C480068006808B9012000E000200A
:1011E00020B14FF0FF304A4908606EE04548006882
:1011F000C068C4686668B54202D24548066064E0CB
:1012000000BF6069D4E902128A60D4E902214A6011
:10121000211D42688A4201D1E16841600022626179
:101220000168491E016000BFA06AA0B100BFA06AAA
:10123000D4E907128A60D4E907214A6004F1180151
:1012400042688A4201D1216A41600022A26201689B
:10125000491E016000BF00BF94F82C100120884097
:101260002C49096808432B49086000BFE16A01EB7B
:101270008101294A02EB81014868A0608268E2602E
:10128000211D826851608160E16A01EB8101224A7F
:1012900000E02BE002EB81026261E16A01EB810177
:1012A0001D4A52F82110491CE26A02EB82021A4BD5
:1012B00043F8221000BF00BF1849E06A0968C96AF4
:1012C000884286D9012784E700E000BF1348006800
:1012D000C06A00EB8000104951F82000012800D9B5
:1012E00001270F48006800B1012704E00D4800689D
:1012F000401C0C4908603846BDE8F0817C000020A5
:101300005400002044000020480000206800002015
:101310007000002058000020A000002040000020A5
:1013200064000020600000202DE9F0410024002727
:10133000FFF7F8FD002552480068401E504908603C
:101340000846006800286ED14E48006800286AD020
:1013500064E04D48C068C46800BFA06AD4E90712C1
:101360008A60D4E907214A6004F1180142688A4280
:1013700001D1216A41600022A2620168491E016018
:1013800000BF00BF6069D4E902128A60D4E902217B
:101390004A60211D42688A4201D1E1684160002211
:1013A00062610168491E016000BF00BF94F82C1003
:1013B000012088403549096808433449086000BF66
:1013C000E16A01EB8101324A02EB81014868A060C9
:1013D0008268E260211D826851608160E16A01EBF0
:1013E00081012B4A02EB81026261E16A01EB81011A
:1013F000274A52F82110491CE26A02EB8202244B70
:1014000043F8221000BF00BF2249E06A0968C96A98
:10141000884203D90120204941F825001A48006874
:1014200010B9012001E026E00020002891D00CB185
:10143000FFF7BAFB194806686EB100BFFFF7A4FEBC
:1014400018B10120144941F82500761E002EF5D16F
:10145000002012490860104850F8250058B10127B3
:1014600000BF0C48006838070D490860BFF34F8F74
:10147000BFF36F8F00BFFFF767FD3846BDE8F0810F
:101480007C000020500000202C010020580000208B
:10149000A000002040000020640000206000002028
:1014A00004ED00E0C414000800000020A0000000CB
:1014B000DC05000864150008A0000020C8640000D6
:1014C000EC05000800000000000000000000000023
:1014D00000C2EB0B010C00000004024000400000C1
:1014E000010C00000004024000200000010C00007C
:1014F0000004024000100000010C00000004024043
:10150000008000000000000000000000000000005B
:1015100000000000000000000000000000000000CB
:1015200000000000000000000000000000000000BB
:1015300000000000000000000000000004000000A7
:1015400000000000AAAAAAAA0000000000000000F3
:10155000000000000000000000000000000000008B
:041560000000000087
:040000050800018965
:00000001FF
